:020000040800F2
:100000008006002079050008DD010008DF010008F6
:10001000E3010008E7010008EB0100080000000010
:10002000000000000000000000000000EF010008D8
:10003000F101000800000000F3010008F5010008CC
:100040009305000893050008930500089305000830
:100050009305000893050008930500089305000820
:100060009305000893050008930500089305000810
:100070009305000893050008930500089305000800
:1000800093050008930500089305000893050008F0
:1000900093050008930500089305000893050008E0
:1000A00093050008930500089305000893050008D0
:1000B00093050008930500089305000893050008C0
:1000C00093050008930500089305000893050008B0
:1000D00093050008F7010008930500089305000840
:1000E0009305000893050008930500089305000890
:1000F0009305000893050008930500089305000880
:10010000930500089305000893050008930500086F
:10011000930500089305000893050008930500085F
:10012000930500089305000893050008930500084F
:1001300000F002F800F043F80AA090E8000C8244B6
:100140008344AAF10107DA4501D100F038F8AFF293
:10015000090EBAE80F0013F0010F18BFFB1A43F0A5
:10016000010318477814000098140000103A24BFC7
:1001700078C878C1FAD8520724BF30C830C144BF0C
:1001800004680C607047000000230024002500264E
:10019000103A28BF78C1FBD8520728BF30C148BFEA
:1001A0000B607047642900F06186002070471FB51E
:1001B0009DE8030000F0B4FE1FBD10B510BD00F0B7
:1001C0008EFF1146FFF7F3FF00F02EF900F0ACFFB1
:1001D00003B4FFF7F2FF03BC00F0CAF9704700BF99
:1001E000FEE700BFFEE700BFFEE700BFFEE7704787
:1001F000704770477047B2B00020124A128802F070
:100200002002EAB10F4A121D1288D1B200F4004256
:10021000B2B900F480422AB10A2900D010E040F4BB
:1002200000400DE00D2902D140F4804008E0C0F309
:100230000D020DF80210421C90B2C72800DD00200C
:1002400032B07047003801400CB50020019000909A
:100250006C48006840F480306A49086000BF694813
:10026000006800F4003000900198401C0190009854
:1002700018B90198B0F5A06FF1D16248006800F498
:10028000003010B10120009001E0002000900098A3
:10029000012843D15C48006840F010005A490860CA
:1002A0000846006820F0030008600846006840F037
:1002B0000200086053484068524948600846406858
:1002C00048600846406840F48060486008464068DE
:1002D00020F47C1048600846406840F4E81048600C
:1002E0000846006840F08070086000BF454800681C
:1002F00000F000700028F9D04248406820F0030068
:10030000404948600846406840F00200486000BF2D
:100310003C48406800F00C000828F9D10CBD10B52D
:10032000FFF792FF10BD10B53648006840F001009D
:1003300034490860084640683449084031494860FB
:1003400008460068324908402E490860084600689F
:1003500020F4802008600846406820F4FE004860D1
:100360004FF41F008860FFF7DAFF4FF00060294963
:10037000086010BD10B5002100200022214B5B68F1
:1003800003F00C0121B1042906D0082928D107E087
:10039000214B224C236027E01F4B204C236023E09D
:1003A000184B5B6803F47010164B5B6803F48032E3
:1003B000022303EB904022B9194B4343174C2360AF
:1003C0000DE0104B5B6803F4003323B1144B43433F
:1003D000124C236003E0104B4343104C236003E0B6
:1003E0000D4B0E4C236000BF00BF064B5B68C3F390
:1003F00003130C4CE15C094B1B68CB40074C23609A
:1004000010BD000000100240002002400000FFF874
:10041000FFFFF6FE08ED00E000127A000000002069
:1004200000093D00040000208AB0092000F0DEF938
:1004300000F048F900F06CFA222000F02FFA0223B5
:100440000322274905A800F0BCFE0C2303222449FF
:10045000684600F0B6FE05A800F032FC684600F0E1
:100460002FFC0122022105A800F09AFB642000F075
:1004700066F91CA000F0BAFC00242FE0012105A8B9
:1004800000F0B8FEBDF8261018A000F0AFFC4FF445
:10049000FA7000F054F90121684600F0ABFEBDF897
:1004A000121016A000F0A2FC4FF4FA7000F047F909
:1004B0000021684600F09EFE4FF4FA7000F03FF90C
:1004C000002105A800F096FE601C044601460FA01E
:1004D00000F08CFC4FF4FA7000F031F9CEE7000028
:1004E0000008014073746172740A0D005041312E8E
:1004F000424954533D2025640A0D00005041322EDC
:10050000424954533D2025640A0D00000AD1ADBB79
:10051000B720256420CDEAB3C90A0D00014600BF0B
:100520001448008800F040000028F9D0C8B2114AF1
:10053000121D108070470F48001D0088704710B5CD
:1005400003460C461846FFF7E9FF10BD10B50446F8
:10055000FFF7F1FF0346FFF7E1FF10BD01464FF043
:10056000FF30704700B503461846FFF7D7FF00BDC0
:1005700000BFFEE7003801400948804709480047AE
:10058000FEE7FEE7FEE7FEE7FEE7FEE7FEE7FEE743
:10059000FEE7FEE704480549054A064B70470000A0
:1005A0002703000831010008800000208006002099
:1005B000800200208002002031490143314A11604D
:1005C000704770B5002100230F22C47804B32D4C6E
:1005D000246804F4E064C4F5E064210AC1F1040372
:1005E000CA40447804FA03F1847814402143090195
:1005F000254C0678A155047804F01F050124AC4071
:1006000005786D11AD0005F1E025C5F8004109E060
:10061000047804F01F050124AC401C4D06787611C7
:1006200045F8264070BD1A4A0A400243154B1B1F6D
:100630001A60704739B1134A121D12680243114BF8
:100640001B1D1A6006E00F4A121D126882430D4BF3
:100650001B1D1A607047042808D14FF0E02109697A
:1006600041F004014FF0E022116107E04FF0E0217A
:10067000096921F004014FF0E02211617047000088
:100680000000FA050CED00E000E400E080E100E08D
:1006900080FFFF1F10B50446204600F050FB10BD40
:1006A00010B50446204600F04AFB10BD10B50446C4
:1006B000204600F073FB10BD10B50446204600F044
:1006C0006DFB10BD10B56FF00400FFF7C4FF694863
:1006D00000686949B0FBF1F0684908700846007885
:1006E00000EB4001C1EBC0104FF6FF7101EAC00002
:1006F0006349088010BD0146604A12784A434FF0B2
:10070000E0235A6100229A611A46126942F00102FE
:100710001A6100BF4FF0E022106900F001021AB127
:1007200000F48032002AF5D04FF0E022126922F066
:1007300001024FF0E0231A6100229A6170470146DE
:100740004F4A12884A434FF0E0235A6100229A61CF
:100750001A46126942F001021A6100BF4FF0E0220E
:10076000106900F001021AB100F48032002AF5D0BD
:100770004FF0E022126922F001024FF0E0231A61EB
:1007800000229A6170473F4A0A4002433E4B1A607A
:10079000704700B500203D490861C86014204861D9
:1007A00000208861C8610846006840F001000860C8
:1007B00008464068364908403449486008460068A1
:1007C00034490840314908600846006820F4802018
:1007D00008600846406820F4FE00486000208860F9
:1007E00000214FF00060FFF7CEFF00BD30B504469A
:1007F0000025FFF7CEFF2548006840F480302349EC
:10080000086000BF21480068400C0028FAD04FF46F
:1008100080601E494860A01EC4B20846406840EA95
:10082000844048600846406840F4803048601A4878
:10083000006840F03200184908601448006840F031
:1008400080701249086000BF10480068400E002800
:10085000FAD00E48406840F002000C49486005E0BC
:100860000A484068C0F3870505F00305022DF7D15B
:1008700030BD00000000002000127A001C000020A3
:100880001E00002080FFFF1F08ED00E00010024066
:100890000000FFF8FFFFF6FE00200240202807DAE4
:1008A0001A49CA69012181400A431849CA6114E002
:1008B000402809DA15498969A0F1200201239340F3
:1008C0001943124A916108E010494969A0F14002B8
:1008D0000123934019430D4A51617047202807DADC
:1008E0000A490A69012181400A4308490A610AE06C
:1008F000402808DA0549C968A0F120020123934085
:100900001943024AD160704770470000001002404E
:100910002DE9F047934D284600F0E0FC84B22046D4
:1009200000F0FCFC8146294600F0D8FD80464FF0DF
:10093000834100F007FD074600F0D0FC86B24FF679
:10094000FF7000EA0414A01984B28748806940F05F
:100950000400854988610846806940F480408861C8
:100960008248006820F47F6080490860084600687B
:1009700040F40B6008607C48C06840F480407A49CD
:10098000C8600846C06820F48040C8607848048089
:10099000001D008842F20C0108437549091D0880BA
:1009A000BDE8F0872DE9F04706460F46072020EA0C
:1009B000030C4FEA0C2C6F4804684FF6FF0004400C
:1009C0006D48044344EA0C046A480460C3F104001F
:1009D00006FA00F50F2018413840054305F00F05D1
:1009E0004FEAE27802EBD8684FEA68184FEA8808C5
:1009F00008F1E028D8F8008111464FEAE27902EBCD
:100A0000D9694FEA6919A2EB491A4FF0010909FAAD
:100A10000AF948EA090810464FEAE27902EBD96977
:100A20004FEA69194FEA890909F1E029C9F80081FB
:100A30005248805C40EA051050498854BDE8F08770
:100A40000CE000BF4A490839098801F0400100293B
:100A5000F8D00178464A121F1180401C0178002905
:100A6000EFD170472EE001780A2902D00D291AD162
:100A70000CE000BF3E490839098801F04001002917
:100A8000F8D00D213A4A121F118019E000BF3849F1
:100A90000839098801F040010029F8D00A21344AB8
:100AA000121F11800CE000BF31490839098801F09C
:100AB00040010029F8D001782D4A121F118000BF93
:100AC00000BF401C01780029CDD1704700BF2849E4
:100AD0000839098801F040010029F8D00A21244A88
:100AE000121F11802EE001780A2902D00D291AD197
:100AF0000CE000BF1E490839098801F040010029B7
:100B0000F8D00D211A4A121F118019E000BF1849B0
:100B10000839098801F040010029F8D00A21144A57
:100B2000121F11800CE000BF11490839098801F03B
:100B300040010029F8D001780D4A121F118000BF32
:100B400000BF401C01780029CDD100BF08490839F9
:100B5000098801F040010029F8D00A21044A121F37
:100B6000118070470060EA43001002400408014011
:100B7000083801400CED00E00000FA0500E400E058
:100B80000246507C18B1507C042800D000BFD068C9
:100B90008068538A184008B1012070470020FCE7A4
:100BA00010B52AB1C368DB680B43C468E36004E096
:100BB000C368DB688B43C468E36010BD10B50246B0
:100BC0000B460021D06880691843D468A061D068C2
:100BD000806940F48030D468A061D0688069D468AE
:100BE000A061D068806940F48030D468A061D0688A
:100BF000806900F4803060B100BF481CC1B2D06889
:100C0000806900F480300028F7D10F29F5DB00DA85
:100C100010BD0020FCE7F0B5437C847C002100225D
:100C20000AE001259540254025B1950003FA05F518
:100C30002943437C551CEAB2082AF2DB0160437C5D
:100C40000021827C141200220AE0012595402540F3
:100C500025B1950003FA05F52943437C551CEAB2FA
:100C6000082AF2DB4160427C082A28D1458A027CAE
:100C70000C2A0FD100220AE0012696402E4026B110
:100C800001269640876837438760561CF2B2102AC7
:100C9000F2DB13E000220FE0012696402E404EB119
:100CA00002F110074FF0010C0CFA07FC866846EAC7
:100CB0000C068660561CF2B2102AEDDB00BFF0BDB8
:100CC000C168096802681143C2681160C168496857
:100CD00042681143C2685160C16809698268114362
:100CE000C2681161704730B50423847C0021002262
:100CF0000AE001259540254025B1950003FA05F548
:100D000029430423551CEAB2082AF2DBC2681160A9
:100D100004230021827C141200220AE00125954060
:100D2000254025B1950003FA05F529430423551CF8
:100D3000EAB2082AF2DBC268516030BD704770B574
:100D4000064600F0D1F8056806F10B0020F0070414
:100D5000B4429CBF002070BD2B466A68BAB11068CF
:100D6000A04210D304F1080188423CBF506858608B
:100D700007D35168101941601168091B0160586060
:100D80001460101D70BD13465268002AE7D1214639
:100D9000284600F0B1F80028DED170BD70B50446D9
:100DA000051F00F0A1F80068002C14BF446870BD56
:100DB000002C18BFAC423CBF20466468F8D30168E1
:100DC0000A18AA4218BF456003D12A680546114493
:100DD000016028684119A1421CBF6C6070BD616848
:100DE000696021680844286070BD00000FB40449A0
:100DF00010B503AA029800F023F910BC5DF814FBAB
:100E0000140000202DE9F0410E4604460020206227
:100E10002046E168884730B3252805D0D4E9012170
:100E20009047206A401CF2E7E16820460027884787
:100E3000050018D0A5F14100192802D820354FF43B
:100E400000673246294620462760FFF7ABF940B1DC
:100E5000012804D0F61D26F007060836D8E7361D0F
:100E6000D6E72846DAE7206ABDE8F0812DE9F041AF
:100E70000646002410687529314615A510D0AFF339
:100E80000080002802DA404212A507E031688A0794
:100E900001D511A502E0490704D510A5012401E000
:100EA000AFF3008000210A2306F1240707E0B0FB1E
:100EB000F3F203FB1200303078541046491C00282E
:100EC000F5D123462A463046BDE8F04100F05EB831
:100ED000000000002D0000002B000000200000009A
:100EE0007047704770470000004870472800002096
:100EF000704770477047704738B504460A4600206F
:100F00006946AFF30080002808BF38BD024600994B
:100F1000204600F0ABF8012038BD012000F0D8B821
:100F2000F8B5AFF30080054600200C46102000BF46
:100F30000646A819A0420DD9324669460020AFF3F3
:100F40000080070008BF00F0C3F80098A04218BF57
:100F50000546C419FFF7C8FF05600746F01D20F0DD
:100F600007004619284600F00AF8B44208BFF8BD49
:100F7000A21B31463868BDE8F84000F077B8002180
:100F80000160C0E901107047102070472DE9F0475B
:100F90000D4699469246044600F1240801688806E9
:100FA00004D5E06921F01001216000E00120A84291
:100FB00001DD471B00E00027A1697A1902EB090057
:100FC000081AA0612078C00602D42046AFF3008042
:100FD000002608E0D4E901211AF806009047206AAB
:100FE000401C761C20624E45F4DB2078C0060AD5F2
:100FF0002046AFF3008006E0D4E90121302090477D
:10100000206A401C2062381EA7F10107F4DC07E0CB
:10101000D4E9012118F805009047206A401C20629D
:10102000281EA5F10105F3DC2046AFF300802078EF
:10103000000602D50220BDE8F0870120FBE7000092
:10104000074B70B50D467B4400F02FF80446284648
:10105000FFF784FA10B14FF0FF3070BD204670BD2D
:10106000F5F4FFFF00487047200000200346406869
:101070008C46002818BF88423CBF03464068F8D31E
:1010800018681844884207D00CF1030020F00700CC
:10109000001D411A521A0146081D0A60FFF77EBE64
:1010A00001694A1C02610878704700B58FB0CDE92C
:1010B00001310021059105497944CDE9031011461C
:1010C0006846FFF79FFE0FB000BD0000E5FFFFFF81
:1010D00010B500F035F8BDE8104000F02BB87546AB
:1010E000FFF7C0FFAE4605006946534620F00700F3
:1010F000854618B020B5FFF74DFABDE820404FF007
:1011000000064FF000074FF000084FF0000B21F0F1
:101110000701AC46ACE8C009ACE8C009ACE8C009BE
:10112000ACE8C0098D4670470446AFF30080204606
:10113000FFF74EF8002801D0FFF71ABA70470000F9
:1011400010B5012805D0002103A000F021F80120EE
:1011500010BD09A1F8E7000053494752544D454DD1
:101160003A204F7574206F662068656170206D6548
:101170006D6F7279000000003A2048656170206D43
:10118000656D6F727920636F72727570746564003B
:1011900070B505460C460A2000E06D1CFFF7E2F929
:1011A00035B128780028F8D102E0641CFFF7DAF99D
:1011B00014B120780028F8D1BDE870400A20FFF76C
:1011C000D1B92DE9F04104460F4615461E46E760A9
:1011D00025740C2D02D10820607400E065746682CD
:1011E000002020606060A0602046FFF714FD2046CC
:1011F000BDE8F08170B504460D462DB1618A01222B
:101200002046FFF7CDFC70BD618A00222046FFF723
:10121000C7FC00BFF7E7000090EA010F48BF81F06C
:10122000004100F16C81421A3CBF801A89184FEAD4
:10123000D0524FF07F4C1CEA410FA2EBD15318BFA4
:101240009CEA026F00F03B804FF0004C4CEA00201B
:101250004CEA012121FA03FC10EB0C0C1ED202F126
:10126000FF325FEA1C2040EBC25038BF70471CF0D1
:101270007F0F4FEA400C18BFBCF17F4F38BF70475B
:10128000C3F12003994008BF20F00100BCF17F4F5B
:1012900038BF7047A0F1C04000F01BB94FEA3C00D6
:1012A000000A40EBC25028BF1CF0FF0F4FEA400C71
:1012B000E6D018BFBCF17F4F38BF7047EAE79CEA21
:1012C000026F05D010EA5C0F08BF00F000407047C5
:1012D00010B500F0B8F800BF64FBBE3EC10DD1F1FF
:1012E0009E0206DB4FEA002343F0004323FA02F09C
:1012F0007047004207D54FEA4001B1F1FE4F02D2DC
:101300004FF00000704710B500F09DF8499224801E
:10131000002070476FEA200070470000B0FA80F3A9
:1013200010FA03F2C3F19D030AD0D90501EB122094
:10133000530638BF704700F1010008BF20F00100DC
:10134000704700004FF47F0C1CEAD0121EBF1CEA4D
:10135000D11392EA0C0F93EA0C0F00F0478090EA49
:10136000010F48BF42F480724FF0004C4CEA00205D
:101370004CEA012102EB0302A0FB0113A2F50002DB
:10138000002918BF43F001035B0028BF4FEA330375
:1013900042EB22425FEA132C4CEBC2502EBFBCEB57
:1013A000436FB2F57C0F70474FEA036CBCF1004FFE
:1013B00008BF20F00100B2F57C0F38BF70470BD595
:1013C00082F0FF0212F5803FC8BF704700F1C040B5
:1013D000D8BF00F00040704700F5000C5FEA4C0CED
:1013E00048BF7047B0F1C04000F073B890EA010FF9
:1013F0000CEAD11348BF42F48072624538BF63459E
:1014000004D280EA010000F00040704710B500F0FF
:101410001AF800BF8900013E00F007B800F009B8D3
:101420005FEA410C5FEA1C6C08D080EA010000F022
:1014300050B85FEA400C5FEA1C6CF6D14FF00040F8
:10144000A0F5800070470EF1020E2EF0030E5EF83C
:10145000044B244204D44FEA4102B2F17F4F11D829
:101460004FEA4003B3F17F4F0CD80ED14FEAD07C46
:10147000B2F17F4F0CEB4C0C0CF1020C08BF4CEBA3
:10148000D17C04E04FF0080C01E04FEAD17C0CEB7A
:101490004C0324FA03F404F00704B4F1040C06D25C
:1014A0000EEB840CBDE810404CF0010C6047DFE807
:1014B0000CF0070802024FF00040A0F5800010BDBC
:1014C0000846420018BFD2F1807288BF00F0004089
:1014D00010BDFF2141EAD050C005704780F00040A8
:1014E00090EA010F7FF59FAE81F0004100F007B850
:1014F00090EA010F48BF81F000413FF594AE421AD7
:1015000004D882F00042A0EB020011444FEAD0520E
:101510004FF07F4C1CEA410FA2EBD15318BF9CEA5D
:10152000026F4AD04FF0004C4CEA00204CEA0121F7
:1015300021FA03FCB0EB0C0C0FD412F0FE0F36D0E6
:101540005FEA4C001DD5001240EBC25038BF704717
:101550001CF03F0F18BF70470BE0A2F101025FEAD9
:101560001C2040EBC25038BF70471CF07F0F18BFE3
:101570007047C3F12003994014BF401E20F00100C2
:10158000704780084FEA122308BF7047B0FA80FC0A
:10159000A2EB0C02CCF1280C60FA0CF093EA122FAB
:1015A00004BF00EBC25070474FEAC3707047130A84
:1015B0005FEADC1008BF7047F6E79CEA026F04D0D0
:1015C00010EA5C0F08BF0020704710B5FFF73BFF23
:1015D00040DFF63E81F0004070470000FC15000837
:1015E00000000020200000006C0100081C1600080C
:1015F00020000020600600008801000800A24A04C4
:1016000000000000000000000102030406070809B2
:0C161000000000000000000000000000CE
:0400000508000131BD
:00000001FF
